{
  "_format": "hh-sol-artifact-1",
  "contractName": "IronRightsNFT",
  "sourceName": "contracts/GameAssetNFT.sol",
  "abi": [
    {
      "inputs": [],
      "stateMutability": "nonpayable",
      "type": "constructor"
    },
    {
      "inputs": [
        {
          "internalType": "uint256",
          "name": "numerator",
          "type": "uint256"
        },
        {
          "internalType": "uint256",
          "name": "denominator",
          "type": "uint256"
        }
      ],
      "name": "ERC2981InvalidDefaultRoyalty",
      "type": "error"
    },
    {
      "inputs": [
        {
          "internalType": "address",
          "name": "receiver",
          "type": "address"
        }
      ],
      "name": "ERC2981InvalidDefaultRoyaltyReceiver",
      "type": "error"
    },
    {
      "inputs": [
        {
          "internalType": "uint256",
          "name": "tokenId",
          "type": "uint256"
        },
        {
          "internalType": "uint256",
          "name": "numerator",
          "type": "uint256"
        },
        {
          "internalType": "uint256",
          "name": "denominator",
          "type": "uint256"
        }
      ],
      "name": "ERC2981InvalidTokenRoyalty",
      "type": "error"
    },
    {
      "inputs": [
        {
          "internalType": "uint256",
          "name": "tokenId",
          "type": "uint256"
        },
        {
          "internalType": "address",
          "name": "receiver",
          "type": "address"
        }
      ],
      "name": "ERC2981InvalidTokenRoyaltyReceiver",
      "type": "error"
    },
    {
      "inputs": [
        {
          "internalType": "address",
          "name": "sender",
          "type": "address"
        },
        {
          "internalType": "uint256",
          "name": "tokenId",
          "type": "uint256"
        },
        {
          "internalType": "address",
          "name": "owner",
          "type": "address"
        }
      ],
      "name": "ERC721IncorrectOwner",
      "type": "error"
    },
    {
      "inputs": [
        {
          "internalType": "address",
          "name": "operator",
          "type": "address"
        },
        {
          "internalType": "uint256",
          "name": "tokenId",
          "type": "uint256"
        }
      ],
      "name": "ERC721InsufficientApproval",
      "type": "error"
    },
    {
      "inputs": [
        {
          "internalType": "address",
          "name": "approver",
          "type": "address"
        }
      ],
      "name": "ERC721InvalidApprover",
      "type": "error"
    },
    {
      "inputs": [
        {
          "internalType": "address",
          "name": "operator",
          "type": "address"
        }
      ],
      "name": "ERC721InvalidOperator",
      "type": "error"
    },
    {
      "inputs": [
        {
          "internalType": "address",
          "name": "owner",
          "type": "address"
        }
      ],
      "name": "ERC721InvalidOwner",
      "type": "error"
    },
    {
      "inputs": [
        {
          "internalType": "address",
          "name": "receiver",
          "type": "address"
        }
      ],
      "name": "ERC721InvalidReceiver",
      "type": "error"
    },
    {
      "inputs": [
        {
          "internalType": "address",
          "name": "sender",
          "type": "address"
        }
      ],
      "name": "ERC721InvalidSender",
      "type": "error"
    },
    {
      "inputs": [
        {
          "internalType": "uint256",
          "name": "tokenId",
          "type": "uint256"
        }
      ],
      "name": "ERC721NonexistentToken",
      "type": "error"
    },
    {
      "inputs": [
        {
          "internalType": "address",
          "name": "owner",
          "type": "address"
        }
      ],
      "name": "OwnableInvalidOwner",
      "type": "error"
    },
    {
      "inputs": [
        {
          "internalType": "address",
          "name": "account",
          "type": "address"
        }
      ],
      "name": "OwnableUnauthorizedAccount",
      "type": "error"
    },
    {
      "anonymous": false,
      "inputs": [
        {
          "indexed": true,
          "internalType": "address",
          "name": "owner",
          "type": "address"
        },
        {
          "indexed": true,
          "internalType": "address",
          "name": "approved",
          "type": "address"
        },
        {
          "indexed": true,
          "internalType": "uint256",
          "name": "tokenId",
          "type": "uint256"
        }
      ],
      "name": "Approval",
      "type": "event"
    },
    {
      "anonymous": false,
      "inputs": [
        {
          "indexed": true,
          "internalType": "address",
          "name": "owner",
          "type": "address"
        },
        {
          "indexed": true,
          "internalType": "address",
          "name": "operator",
          "type": "address"
        },
        {
          "indexed": false,
          "internalType": "bool",
          "name": "approved",
          "type": "bool"
        }
      ],
      "name": "ApprovalForAll",
      "type": "event"
    },
    {
      "anonymous": false,
      "inputs": [
        {
          "indexed": true,
          "internalType": "address",
          "name": "previousOwner",
          "type": "address"
        },
        {
          "indexed": true,
          "internalType": "address",
          "name": "newOwner",
          "type": "address"
        }
      ],
      "name": "OwnershipTransferred",
      "type": "event"
    },
    {
      "anonymous": false,
      "inputs": [
        {
          "indexed": true,
          "internalType": "address",
          "name": "from",
          "type": "address"
        },
        {
          "indexed": true,
          "internalType": "address",
          "name": "to",
          "type": "address"
        },
        {
          "indexed": true,
          "internalType": "uint256",
          "name": "tokenId",
          "type": "uint256"
        }
      ],
      "name": "Transfer",
      "type": "event"
    },
    {
      "inputs": [
        {
          "internalType": "address",
          "name": "to",
          "type": "address"
        },
        {
          "internalType": "uint256",
          "name": "tokenId",
          "type": "uint256"
        }
      ],
      "name": "approve",
      "outputs": [],
      "stateMutability": "nonpayable",
      "type": "function"
    },
    {
      "inputs": [
        {
          "internalType": "address",
          "name": "owner",
          "type": "address"
        }
      ],
      "name": "balanceOf",
      "outputs": [
        {
          "internalType": "uint256",
          "name": "",
          "type": "uint256"
        }
      ],
      "stateMutability": "view",
      "type": "function"
    },
    {
      "inputs": [
        {
          "internalType": "uint256",
          "name": "tokenId",
          "type": "uint256"
        }
      ],
      "name": "getApproved",
      "outputs": [
        {
          "internalType": "address",
          "name": "",
          "type": "address"
        }
      ],
      "stateMutability": "view",
      "type": "function"
    },
    {
      "inputs": [
        {
          "internalType": "uint256",
          "name": "tokenId",
          "type": "uint256"
        },
        {
          "internalType": "address",
          "name": "licensee",
          "type": "address"
        },
        {
          "internalType": "uint256",
          "name": "durationInDays",
          "type": "uint256"
        }
      ],
      "name": "grantLicense",
      "outputs": [],
      "stateMutability": "nonpayable",
      "type": "function"
    },
    {
      "inputs": [
        {
          "internalType": "address",
          "name": "owner",
          "type": "address"
        },
        {
          "internalType": "address",
          "name": "operator",
          "type": "address"
        }
      ],
      "name": "isApprovedForAll",
      "outputs": [
        {
          "internalType": "bool",
          "name": "",
          "type": "bool"
        }
      ],
      "stateMutability": "view",
      "type": "function"
    },
    {
      "inputs": [
        {
          "internalType": "uint256",
          "name": "tokenId",
          "type": "uint256"
        }
      ],
      "name": "isLicenseActive",
      "outputs": [
        {
          "internalType": "bool",
          "name": "",
          "type": "bool"
        }
      ],
      "stateMutability": "view",
      "type": "function"
    },
    {
      "inputs": [
        {
          "internalType": "uint256",
          "name": "",
          "type": "uint256"
        }
      ],
      "name": "licenses",
      "outputs": [
        {
          "internalType": "address",
          "name": "licensee",
          "type": "address"
        },
        {
          "internalType": "uint256",
          "name": "expirationTimestamp",
          "type": "uint256"
        },
        {
          "internalType": "bool",
          "name": "active",
          "type": "bool"
        }
      ],
      "stateMutability": "view",
      "type": "function"
    },
    {
      "inputs": [
        {
          "internalType": "address",
          "name": "to",
          "type": "address"
        },
        {
          "internalType": "uint96",
          "name": "royaltyFee",
          "type": "uint96"
        }
      ],
      "name": "mint",
      "outputs": [],
      "stateMutability": "nonpayable",
      "type": "function"
    },
    {
      "inputs": [],
      "name": "name",
      "outputs": [
        {
          "internalType": "string",
          "name": "",
          "type": "string"
        }
      ],
      "stateMutability": "view",
      "type": "function"
    },
    {
      "inputs": [],
      "name": "owner",
      "outputs": [
        {
          "internalType": "address",
          "name": "",
          "type": "address"
        }
      ],
      "stateMutability": "view",
      "type": "function"
    },
    {
      "inputs": [
        {
          "internalType": "uint256",
          "name": "tokenId",
          "type": "uint256"
        }
      ],
      "name": "ownerOf",
      "outputs": [
        {
          "internalType": "address",
          "name": "",
          "type": "address"
        }
      ],
      "stateMutability": "view",
      "type": "function"
    },
    {
      "inputs": [],
      "name": "renounceOwnership",
      "outputs": [],
      "stateMutability": "nonpayable",
      "type": "function"
    },
    {
      "inputs": [
        {
          "internalType": "uint256",
          "name": "tokenId",
          "type": "uint256"
        }
      ],
      "name": "revokeLicense",
      "outputs": [],
      "stateMutability": "nonpayable",
      "type": "function"
    },
    {
      "inputs": [
        {
          "internalType": "uint256",
          "name": "tokenId",
          "type": "uint256"
        },
        {
          "internalType": "uint256",
          "name": "salePrice",
          "type": "uint256"
        }
      ],
      "name": "royaltyInfo",
      "outputs": [
        {
          "internalType": "address",
          "name": "receiver",
          "type": "address"
        },
        {
          "internalType": "uint256",
          "name": "amount",
          "type": "uint256"
        }
      ],
      "stateMutability": "view",
      "type": "function"
    },
    {
      "inputs": [
        {
          "internalType": "address",
          "name": "from",
          "type": "address"
        },
        {
          "internalType": "address",
          "name": "to",
          "type": "address"
        },
        {
          "internalType": "uint256",
          "name": "tokenId",
          "type": "uint256"
        }
      ],
      "name": "safeTransferFrom",
      "outputs": [],
      "stateMutability": "nonpayable",
      "type": "function"
    },
    {
      "inputs": [
        {
          "internalType": "address",
          "name": "from",
          "type": "address"
        },
        {
          "internalType": "address",
          "name": "to",
          "type": "address"
        },
        {
          "internalType": "uint256",
          "name": "tokenId",
          "type": "uint256"
        },
        {
          "internalType": "bytes",
          "name": "data",
          "type": "bytes"
        }
      ],
      "name": "safeTransferFrom",
      "outputs": [],
      "stateMutability": "nonpayable",
      "type": "function"
    },
    {
      "inputs": [
        {
          "internalType": "address",
          "name": "operator",
          "type": "address"
        },
        {
          "internalType": "bool",
          "name": "approved",
          "type": "bool"
        }
      ],
      "name": "setApprovalForAll",
      "outputs": [],
      "stateMutability": "nonpayable",
      "type": "function"
    },
    {
      "inputs": [
        {
          "internalType": "bytes4",
          "name": "interfaceId",
          "type": "bytes4"
        }
      ],
      "name": "supportsInterface",
      "outputs": [
        {
          "internalType": "bool",
          "name": "",
          "type": "bool"
        }
      ],
      "stateMutability": "view",
      "type": "function"
    },
    {
      "inputs": [],
      "name": "symbol",
      "outputs": [
        {
          "internalType": "string",
          "name": "",
          "type": "string"
        }
      ],
      "stateMutability": "view",
      "type": "function"
    },
    {
      "inputs": [
        {
          "internalType": "uint256",
          "name": "tokenId",
          "type": "uint256"
        }
      ],
      "name": "tokenURI",
      "outputs": [
        {
          "internalType": "string",
          "name": "",
          "type": "string"
        }
      ],
      "stateMutability": "view",
      "type": "function"
    },
    {
      "inputs": [
        {
          "internalType": "address",
          "name": "from",
          "type": "address"
        },
        {
          "internalType": "address",
          "name": "to",
          "type": "address"
        },
        {
          "internalType": "uint256",
          "name": "tokenId",
          "type": "uint256"
        }
      ],
      "name": "transferFrom",
      "outputs": [],
      "stateMutability": "nonpayable",
      "type": "function"
    },
    {
      "inputs": [
        {
          "internalType": "address",
          "name": "newOwner",
          "type": "address"
        }
      ],
      "name": "transferOwnership",
      "outputs": [],
      "stateMutability": "nonpayable",
      "type": "function"
    }
  ],
  "bytecode": "0x608060405234801561001057600080fd5b50336040518060400160405280600d81526020017f49726f6e5269676874734e4654000000000000000000000000000000000000008152506040518060400160405280600581526020017f49524e4654000000000000000000000000000000000000000000000000000000815250816002908161008d919061043d565b50806003908161009d919061043d565b505050600073ffffffffffffffffffffffffffffffffffffffff168173ffffffffffffffffffffffffffffffffffffffff16036101125760006040517f1e4fbdf70000000000000000000000000000000000000000000000000000000081526004016101099190610550565b60405180910390fd5b6101218161012760201b60201c565b5061056b565b6000600860009054906101000a900473ffffffffffffffffffffffffffffffffffffffff16905081600860006101000a81548173ffffffffffffffffffffffffffffffffffffffff021916908373ffffffffffffffffffffffffffffffffffffffff1602179055508173ffffffffffffffffffffffffffffffffffffffff168173ffffffffffffffffffffffffffffffffffffffff167f8be0079c531659141344cd1fd0a4f28419497f9722a3daafe3b4186f6b6457e060405160405180910390a35050565b600081519050919050565b7f4e487b7100000000000000000000000000000000000000000000000000000000600052604160045260246000fd5b7f4e487b7100000000000000000000000000000000000000000000000000000000600052602260045260246000fd5b6000600282049050600182168061026e57607f821691505b60208210810361028157610280610227565b5b50919050565b60008190508160005260206000209050919050565b60006020601f8301049050919050565b600082821b905092915050565b6000600883026102e97fffffffffffffffffffffffffffffffffffffffffffffffffffffffffffffffff826102ac565b6102f386836102ac565b95508019841693508086168417925050509392505050565b6000819050919050565b6000819050919050565b600061033a6103356103308461030b565b610315565b61030b565b9050919050565b6000819050919050565b6103548361031f565b61036861036082610341565b8484546102b9565b825550505050565b600090565b61037d610370565b61038881848461034b565b505050565b5b818110156103ac576103a1600082610375565b60018101905061038e565b5050565b601f8211156103f1576103c281610287565b6103cb8461029c565b810160208510156103da578190505b6103ee6103e68561029c565b83018261038d565b50505b505050565b600082821c905092915050565b6000610414600019846008026103f6565b1980831691505092915050565b600061042d8383610403565b9150826002028217905092915050565b610446826101ed565b67ffffffffffffffff81111561045f5761045e6101f8565b5b6104698254610256565b6104748282856103b0565b600060209050601f8311600181146104a75760008415610495578287015190505b61049f8582610421565b865550610507565b601f1984166104b586610287565b60005b828110156104dd578489015182556001820191506020850194506020810190506104b8565b868310156104fa57848901516104f6601f891682610403565b8355505b6001600288020188555050505b505050505050565b600073ffffffffffffffffffffffffffffffffffffffff82169050919050565b600061053a8261050f565b9050919050565b61054a8161052f565b82525050565b60006020820190506105656000830184610541565b92915050565b612a548061057a6000396000f3fe608060405234801561001057600080fd5b50600436106101425760003560e01c806370a08231116100b8578063b88d4fde1161007c578063b88d4fde14610376578063c87b56dd14610392578063e705c2b8146103c2578063e985e9c5146103f2578063f2fde38b14610422578063f988f29b1461043e57610142565b806370a08231146102e4578063715018a6146103145780638da5cb5b1461031e57806395d89b411461033c578063a22cb4651461035a57610142565b806323b872dd1161010a57806323b872dd146101fd5780632a55205a14610219578063337908451461024a57806342842e0e1461027c578063439d4b5c146102985780636352211e146102b457610142565b806301ffc9a71461014757806306fdde0314610177578063081812fc14610195578063095ea7b3146101c55780631b025a40146101e1575b600080fd5b610161600480360381019061015c9190611f97565b61045a565b60405161016e9190611fdf565b60405180910390f35b61017f61046c565b60405161018c919061208a565b60405180910390f35b6101af60048036038101906101aa91906120e2565b6104fe565b6040516101bc9190612150565b60405180910390f35b6101df60048036038101906101da9190612197565b61051a565b005b6101fb60048036038101906101f6919061221b565b610530565b005b6102176004803603810190610212919061225b565b61056d565b005b610233600480360381019061022e91906122ae565b61066f565b6040516102419291906122fd565b60405180910390f35b610264600480360381019061025f91906120e2565b61079d565b60405161027393929190612326565b60405180910390f35b6102966004803603810190610291919061225b565b6107f4565b005b6102b260048036038101906102ad91906120e2565b610814565b005b6102ce60048036038101906102c991906120e2565b61084e565b6040516102db9190612150565b60405180910390f35b6102fe60048036038101906102f9919061235d565b610860565b60405161030b919061238a565b60405180910390f35b61031c61091a565b005b61032661092e565b6040516103339190612150565b60405180910390f35b610344610958565b604051610351919061208a565b60405180910390f35b610374600480360381019061036f91906123d1565b6109ea565b005b610390600480360381019061038b9190612546565b610a00565b005b6103ac60048036038101906103a791906120e2565b610a25565b6040516103b9919061208a565b60405180910390f35b6103dc60048036038101906103d791906120e2565b610a8e565b6040516103e99190611fdf565b60405180910390f35b61040c600480360381019061040791906125c9565b610b48565b6040516104199190611fdf565b60405180910390f35b61043c6004803603810190610437919061235d565b610bdc565b005b61045860048036038101906104539190612609565b610c62565b005b600061046582610d43565b9050919050565b60606002805461047b9061268b565b80601f01602080910402602001604051908101604052809291908181526020018280546104a79061268b565b80156104f45780601f106104c9576101008083540402835291602001916104f4565b820191906000526020600020905b8154815290600101906020018083116104d757829003601f168201915b5050505050905090565b600061050982610e25565b5061051382610ead565b9050919050565b61052c8282610527610eea565b610ef2565b5050565b610538610f04565b6009600081548092919061054b906126eb565b919050555061055c82600954610f8b565b6105696009548383610fa9565b5050565b600073ffffffffffffffffffffffffffffffffffffffff168273ffffffffffffffffffffffffffffffffffffffff16036105df5760006040517f64a0ae920000000000000000000000000000000000000000000000000000000081526004016105d69190612150565b60405180910390fd5b60006105f383836105ee610eea565b611161565b90508373ffffffffffffffffffffffffffffffffffffffff168173ffffffffffffffffffffffffffffffffffffffff1614610669578382826040517f64283d7b00000000000000000000000000000000000000000000000000000000815260040161066093929190612733565b60405180910390fd5b50505050565b600080600060016000868152602001908152602001600020905060008160000160009054906101000a900473ffffffffffffffffffffffffffffffffffffffff16905060008260000160149054906101000a90046bffffffffffffffffffffffff169050600073ffffffffffffffffffffffffffffffffffffffff168273ffffffffffffffffffffffffffffffffffffffff160361074e576000800160009054906101000a900473ffffffffffffffffffffffffffffffffffffffff1691506000800160149054906101000a90046bffffffffffffffffffffffff1690505b600061075861137b565b6bffffffffffffffffffffffff16826bffffffffffffffffffffffff1688610780919061276a565b61078a91906127db565b9050828195509550505050509250929050565b600a6020528060005260406000206000915090508060000160009054906101000a900473ffffffffffffffffffffffffffffffffffffffff16908060010154908060020160009054906101000a900460ff16905083565b61080f83838360405180602001604052806000815250610a00565b505050565b61081c610f04565b6000600a600083815260200190815260200160002060020160006101000a81548160ff02191690831515021790555050565b600061085982610e25565b9050919050565b60008073ffffffffffffffffffffffffffffffffffffffff168273ffffffffffffffffffffffffffffffffffffffff16036108d35760006040517f89c62b640000000000000000000000000000000000000000000000000000000081526004016108ca9190612150565b60405180910390fd5b600560008373ffffffffffffffffffffffffffffffffffffffff1673ffffffffffffffffffffffffffffffffffffffff168152602001908152602001600020549050919050565b610922610f04565b61092c6000611385565b565b6000600860009054906101000a900473ffffffffffffffffffffffffffffffffffffffff16905090565b6060600380546109679061268b565b80601f01602080910402602001604051908101604052809291908181526020018280546109939061268b565b80156109e05780601f106109b5576101008083540402835291602001916109e0565b820191906000526020600020905b8154815290600101906020018083116109c357829003601f168201915b5050505050905090565b6109fc6109f5610eea565b838361144b565b5050565b610a0b84848461056d565b610a1f610a16610eea565b858585856115ba565b50505050565b6060610a3082610e25565b506000610a3b61176b565b90506000815111610a5b5760405180602001604052806000815250610a86565b80610a6584611782565b604051602001610a76929190612848565b6040516020818303038152906040525b915050919050565b600080600a60008481526020019081526020016000206040518060600160405290816000820160009054906101000a900473ffffffffffffffffffffffffffffffffffffffff1673ffffffffffffffffffffffffffffffffffffffff1673ffffffffffffffffffffffffffffffffffffffff168152602001600182015481526020016002820160009054906101000a900460ff161515151581525050905080604001518015610b405750428160200151115b915050919050565b6000600760008473ffffffffffffffffffffffffffffffffffffffff1673ffffffffffffffffffffffffffffffffffffffff16815260200190815260200160002060008373ffffffffffffffffffffffffffffffffffffffff1673ffffffffffffffffffffffffffffffffffffffff16815260200190815260200160002060009054906101000a900460ff16905092915050565b610be4610f04565b600073ffffffffffffffffffffffffffffffffffffffff168173ffffffffffffffffffffffffffffffffffffffff1603610c565760006040517f1e4fbdf7000000000000000000000000000000000000000000000000000000008152600401610c4d9190612150565b60405180910390fd5b610c5f81611385565b50565b610c6a610f04565b60405180606001604052808373ffffffffffffffffffffffffffffffffffffffff1681526020016201518083610ca0919061276a565b42610cab919061286c565b815260200160011515815250600a600085815260200190815260200160002060008201518160000160006101000a81548173ffffffffffffffffffffffffffffffffffffffff021916908373ffffffffffffffffffffffffffffffffffffffff1602179055506020820151816001015560408201518160020160006101000a81548160ff021916908315150217905550905050505050565b60007f80ac58cd000000000000000000000000000000000000000000000000000000007bffffffffffffffffffffffffffffffffffffffffffffffffffffffff1916827bffffffffffffffffffffffffffffffffffffffffffffffffffffffff19161480610e0e57507f5b5e139f000000000000000000000000000000000000000000000000000000007bffffffffffffffffffffffffffffffffffffffffffffffffffffffff1916827bffffffffffffffffffffffffffffffffffffffffffffffffffffffff1916145b80610e1e5750610e1d82611850565b5b9050919050565b600080610e31836118ca565b9050600073ffffffffffffffffffffffffffffffffffffffff168173ffffffffffffffffffffffffffffffffffffffff1603610ea457826040517f7e273289000000000000000000000000000000000000000000000000000000008152600401610e9b919061238a565b60405180910390fd5b80915050919050565b60006006600083815260200190815260200160002060009054906101000a900473ffffffffffffffffffffffffffffffffffffffff169050919050565b600033905090565b610eff8383836001611907565b505050565b610f0c610eea565b73ffffffffffffffffffffffffffffffffffffffff16610f2a61092e565b73ffffffffffffffffffffffffffffffffffffffff1614610f8957610f4d610eea565b6040517f118cdaa7000000000000000000000000000000000000000000000000000000008152600401610f809190612150565b60405180910390fd5b565b610fa5828260405180602001604052806000815250611acc565b5050565b6000610fb361137b565b6bffffffffffffffffffffffff16905080826bffffffffffffffffffffffff16111561101a578382826040517fdfd1fc1b000000000000000000000000000000000000000000000000000000008152600401611011939291906128db565b60405180910390fd5b600073ffffffffffffffffffffffffffffffffffffffff168373ffffffffffffffffffffffffffffffffffffffff160361108e578360006040517f969f0852000000000000000000000000000000000000000000000000000000008152600401611085929190612912565b60405180910390fd5b60405180604001604052808473ffffffffffffffffffffffffffffffffffffffff168152602001836bffffffffffffffffffffffff168152506001600086815260200190815260200160002060008201518160000160006101000a81548173ffffffffffffffffffffffffffffffffffffffff021916908373ffffffffffffffffffffffffffffffffffffffff16021790555060208201518160000160146101000a8154816bffffffffffffffffffffffff02191690836bffffffffffffffffffffffff16021790555090505050505050565b60008061116d846118ca565b9050600073ffffffffffffffffffffffffffffffffffffffff168373ffffffffffffffffffffffffffffffffffffffff16146111af576111ae818486611af0565b5b600073ffffffffffffffffffffffffffffffffffffffff168173ffffffffffffffffffffffffffffffffffffffff1614611240576111f1600085600080611907565b6001600560008373ffffffffffffffffffffffffffffffffffffffff1673ffffffffffffffffffffffffffffffffffffffff168152602001908152602001600020600082825403925050819055505b600073ffffffffffffffffffffffffffffffffffffffff168573ffffffffffffffffffffffffffffffffffffffff16146112c3576001600560008773ffffffffffffffffffffffffffffffffffffffff1673ffffffffffffffffffffffffffffffffffffffff168152602001908152602001600020600082825401925050819055505b846004600086815260200190815260200160002060006101000a81548173ffffffffffffffffffffffffffffffffffffffff021916908373ffffffffffffffffffffffffffffffffffffffff160217905550838573ffffffffffffffffffffffffffffffffffffffff168273ffffffffffffffffffffffffffffffffffffffff167fddf252ad1be2c89b69c2b068fc378daa952ba7f163c4a11628f55a4df523b3ef60405160405180910390a4809150509392505050565b6000612710905090565b6000600860009054906101000a900473ffffffffffffffffffffffffffffffffffffffff16905081600860006101000a81548173ffffffffffffffffffffffffffffffffffffffff021916908373ffffffffffffffffffffffffffffffffffffffff1602179055508173ffffffffffffffffffffffffffffffffffffffff168173ffffffffffffffffffffffffffffffffffffffff167f8be0079c531659141344cd1fd0a4f28419497f9722a3daafe3b4186f6b6457e060405160405180910390a35050565b600073ffffffffffffffffffffffffffffffffffffffff168273ffffffffffffffffffffffffffffffffffffffff16036114bc57816040517f5b08ba180000000000000000000000000000000000000000000000000000000081526004016114b39190612150565b60405180910390fd5b80600760008573ffffffffffffffffffffffffffffffffffffffff1673ffffffffffffffffffffffffffffffffffffffff16815260200190815260200160002060008473ffffffffffffffffffffffffffffffffffffffff1673ffffffffffffffffffffffffffffffffffffffff16815260200190815260200160002060006101000a81548160ff0219169083151502179055508173ffffffffffffffffffffffffffffffffffffffff168373ffffffffffffffffffffffffffffffffffffffff167f17307eab39ab6107e8899845ad3d59bd9653f200f220920489ca2b5937696c31836040516115ad9190611fdf565b60405180910390a3505050565b60008373ffffffffffffffffffffffffffffffffffffffff163b1115611764578273ffffffffffffffffffffffffffffffffffffffff1663150b7a02868685856040518563ffffffff1660e01b81526004016116199493929190612990565b6020604051808303816000875af192505050801561165557506040513d601f19601f8201168201806040525081019061165291906129f1565b60015b6116d9573d8060008114611685576040519150601f19603f3d011682016040523d82523d6000602084013e61168a565b606091505b5060008151036116d157836040517f64a0ae920000000000000000000000000000000000000000000000000000000081526004016116c89190612150565b60405180910390fd5b805181602001fd5b63150b7a0260e01b7bffffffffffffffffffffffffffffffffffffffffffffffffffffffff1916817bffffffffffffffffffffffffffffffffffffffffffffffffffffffff19161461176257836040517f64a0ae920000000000000000000000000000000000000000000000000000000081526004016117599190612150565b60405180910390fd5b505b5050505050565b606060405180602001604052806000815250905090565b60606000600161179184611bb4565b01905060008167ffffffffffffffff8111156117b0576117af61241b565b5b6040519080825280601f01601f1916602001820160405280156117e25781602001600182028036833780820191505090505b509050600082602001820190505b600115611845578080600190039150507f3031323334353637383961626364656600000000000000000000000000000000600a86061a8153600a8581611839576118386127ac565b5b049450600085036117f0575b819350505050919050565b60007f2a55205a000000000000000000000000000000000000000000000000000000007bffffffffffffffffffffffffffffffffffffffffffffffffffffffff1916827bffffffffffffffffffffffffffffffffffffffffffffffffffffffff191614806118c357506118c282611d07565b5b9050919050565b60006004600083815260200190815260200160002060009054906101000a900473ffffffffffffffffffffffffffffffffffffffff169050919050565b80806119405750600073ffffffffffffffffffffffffffffffffffffffff168273ffffffffffffffffffffffffffffffffffffffff1614155b15611a7457600061195084610e25565b9050600073ffffffffffffffffffffffffffffffffffffffff168373ffffffffffffffffffffffffffffffffffffffff16141580156119bb57508273ffffffffffffffffffffffffffffffffffffffff168173ffffffffffffffffffffffffffffffffffffffff1614155b80156119ce57506119cc8184610b48565b155b15611a1057826040517fa9fbf51f000000000000000000000000000000000000000000000000000000008152600401611a079190612150565b60405180910390fd5b8115611a7257838573ffffffffffffffffffffffffffffffffffffffff168273ffffffffffffffffffffffffffffffffffffffff167f8c5be1e5ebec7d5bd14f71427d1e84f3dd0314c0f7b2291e5b200ac8c7c3b92560405160405180910390a45b505b836006600085815260200190815260200160002060006101000a81548173ffffffffffffffffffffffffffffffffffffffff021916908373ffffffffffffffffffffffffffffffffffffffff16021790555050505050565b611ad68383611d71565b611aeb611ae1610eea565b60008585856115ba565b505050565b611afb838383611e6a565b611baf57600073ffffffffffffffffffffffffffffffffffffffff168373ffffffffffffffffffffffffffffffffffffffff1603611b7057806040517f7e273289000000000000000000000000000000000000000000000000000000008152600401611b67919061238a565b60405180910390fd5b81816040517f177e802f000000000000000000000000000000000000000000000000000000008152600401611ba69291906122fd565b60405180910390fd5b505050565b600080600090507a184f03e93ff9f4daa797ed6e38ed64bf6a1f0100000000000000008310611c12577a184f03e93ff9f4daa797ed6e38ed64bf6a1f0100000000000000008381611c0857611c076127ac565b5b0492506040810190505b6d04ee2d6d415b85acef81000000008310611c4f576d04ee2d6d415b85acef81000000008381611c4557611c446127ac565b5b0492506020810190505b662386f26fc100008310611c7e57662386f26fc100008381611c7457611c736127ac565b5b0492506010810190505b6305f5e1008310611ca7576305f5e1008381611c9d57611c9c6127ac565b5b0492506008810190505b6127108310611ccc576127108381611cc257611cc16127ac565b5b0492506004810190505b60648310611cef5760648381611ce557611ce46127ac565b5b0492506002810190505b600a8310611cfe576001810190505b80915050919050565b60007f01ffc9a7000000000000000000000000000000000000000000000000000000007bffffffffffffffffffffffffffffffffffffffffffffffffffffffff1916827bffffffffffffffffffffffffffffffffffffffffffffffffffffffff1916149050919050565b600073ffffffffffffffffffffffffffffffffffffffff168273ffffffffffffffffffffffffffffffffffffffff1603611de35760006040517f64a0ae92000000000000000000000000000000000000000000000000000000008152600401611dda9190612150565b60405180910390fd5b6000611df183836000611161565b9050600073ffffffffffffffffffffffffffffffffffffffff168173ffffffffffffffffffffffffffffffffffffffff1614611e655760006040517f73c6ac6e000000000000000000000000000000000000000000000000000000008152600401611e5c9190612150565b60405180910390fd5b505050565b60008073ffffffffffffffffffffffffffffffffffffffff168373ffffffffffffffffffffffffffffffffffffffff1614158015611f2257508273ffffffffffffffffffffffffffffffffffffffff168473ffffffffffffffffffffffffffffffffffffffff161480611ee35750611ee28484610b48565b5b80611f2157508273ffffffffffffffffffffffffffffffffffffffff16611f0983610ead565b73ffffffffffffffffffffffffffffffffffffffff16145b5b90509392505050565b6000604051905090565b600080fd5b600080fd5b60007fffffffff0000000000000000000000000000000000000000000000000000000082169050919050565b611f7481611f3f565b8114611f7f57600080fd5b50565b600081359050611f9181611f6b565b92915050565b600060208284031215611fad57611fac611f35565b5b6000611fbb84828501611f82565b91505092915050565b60008115159050919050565b611fd981611fc4565b82525050565b6000602082019050611ff46000830184611fd0565b92915050565b600081519050919050565b600082825260208201905092915050565b60005b83811015612034578082015181840152602081019050612019565b60008484015250505050565b6000601f19601f8301169050919050565b600061205c82611ffa565b6120668185612005565b9350612076818560208601612016565b61207f81612040565b840191505092915050565b600060208201905081810360008301526120a48184612051565b905092915050565b6000819050919050565b6120bf816120ac565b81146120ca57600080fd5b50565b6000813590506120dc816120b6565b92915050565b6000602082840312156120f8576120f7611f35565b5b6000612106848285016120cd565b91505092915050565b600073ffffffffffffffffffffffffffffffffffffffff82169050919050565b600061213a8261210f565b9050919050565b61214a8161212f565b82525050565b60006020820190506121656000830184612141565b92915050565b6121748161212f565b811461217f57600080fd5b50565b6000813590506121918161216b565b92915050565b600080604083850312156121ae576121ad611f35565b5b60006121bc85828601612182565b92505060206121cd858286016120cd565b9150509250929050565b60006bffffffffffffffffffffffff82169050919050565b6121f8816121d7565b811461220357600080fd5b50565b600081359050612215816121ef565b92915050565b6000806040838503121561223257612231611f35565b5b600061224085828601612182565b925050602061225185828601612206565b9150509250929050565b60008060006060848603121561227457612273611f35565b5b600061228286828701612182565b935050602061229386828701612182565b92505060406122a4868287016120cd565b9150509250925092565b600080604083850312156122c5576122c4611f35565b5b60006122d3858286016120cd565b92505060206122e4858286016120cd565b9150509250929050565b6122f7816120ac565b82525050565b60006040820190506123126000830185612141565b61231f60208301846122ee565b9392505050565b600060608201905061233b6000830186612141565b61234860208301856122ee565b6123556040830184611fd0565b949350505050565b60006020828403121561237357612372611f35565b5b600061238184828501612182565b91505092915050565b600060208201905061239f60008301846122ee565b92915050565b6123ae81611fc4565b81146123b957600080fd5b50565b6000813590506123cb816123a5565b92915050565b600080604083850312156123e8576123e7611f35565b5b60006123f685828601612182565b9250506020612407858286016123bc565b9150509250929050565b600080fd5b600080fd5b7f4e487b7100000000000000000000000000000000000000000000000000000000600052604160045260246000fd5b61245382612040565b810181811067ffffffffffffffff821117156124725761247161241b565b5b80604052505050565b6000612485611f2b565b9050612491828261244a565b919050565b600067ffffffffffffffff8211156124b1576124b061241b565b5b6124ba82612040565b9050602081019050919050565b82818337600083830152505050565b60006124e96124e484612496565b61247b565b90508281526020810184848401111561250557612504612416565b5b6125108482856124c7565b509392505050565b600082601f83011261252d5761252c612411565b5b813561253d8482602086016124d6565b91505092915050565b600080600080608085870312156125605761255f611f35565b5b600061256e87828801612182565b945050602061257f87828801612182565b9350506040612590878288016120cd565b925050606085013567ffffffffffffffff8111156125b1576125b0611f3a565b5b6125bd87828801612518565b91505092959194509250565b600080604083850312156125e0576125df611f35565b5b60006125ee85828601612182565b92505060206125ff85828601612182565b9150509250929050565b60008060006060848603121561262257612621611f35565b5b6000612630868287016120cd565b935050602061264186828701612182565b9250506040612652868287016120cd565b9150509250925092565b7f4e487b7100000000000000000000000000000000000000000000000000000000600052602260045260246000fd5b600060028204905060018216806126a357607f821691505b6020821081036126b6576126b561265c565b5b50919050565b7f4e487b7100000000000000000000000000000000000000000000000000000000600052601160045260246000fd5b60006126f6826120ac565b91507fffffffffffffffffffffffffffffffffffffffffffffffffffffffffffffffff8203612728576127276126bc565b5b600182019050919050565b60006060820190506127486000830186612141565b61275560208301856122ee565b6127626040830184612141565b949350505050565b6000612775826120ac565b9150612780836120ac565b925082820261278e816120ac565b915082820484148315176127a5576127a46126bc565b5b5092915050565b7f4e487b7100000000000000000000000000000000000000000000000000000000600052601260045260246000fd5b60006127e6826120ac565b91506127f1836120ac565b925082612801576128006127ac565b5b828204905092915050565b600081905092915050565b600061282282611ffa565b61282c818561280c565b935061283c818560208601612016565b80840191505092915050565b60006128548285612817565b91506128608284612817565b91508190509392505050565b6000612877826120ac565b9150612882836120ac565b925082820190508082111561289a576128996126bc565b5b92915050565b6000819050919050565b60006128c56128c06128bb846121d7565b6128a0565b6120ac565b9050919050565b6128d5816128aa565b82525050565b60006060820190506128f060008301866122ee565b6128fd60208301856128cc565b61290a60408301846122ee565b949350505050565b600060408201905061292760008301856122ee565b6129346020830184612141565b9392505050565b600081519050919050565b600082825260208201905092915050565b60006129628261293b565b61296c8185612946565b935061297c818560208601612016565b61298581612040565b840191505092915050565b60006080820190506129a56000830187612141565b6129b26020830186612141565b6129bf60408301856122ee565b81810360608301526129d18184612957565b905095945050505050565b6000815190506129eb81611f6b565b92915050565b600060208284031215612a0757612a06611f35565b5b6000612a15848285016129dc565b9150509291505056fea264697066735822122075bba11c205c5e3597b02a8fe7f670d14f55ccc55890c72d27461f14f5a71d2c64736f6c634300081c0033",
  "linkReferences": {},
  "deployedLinkReferences": {}
}